{
  "contractName": "Gaming",
  "abi": [
    {
      "inputs": [],
      "payable": true,
      "stateMutability": "payable",
      "type": "constructor"
    },
    {
      "constant": true,
      "inputs": [
        {
          "internalType": "uint256",
          "name": "number",
          "type": "uint256"
        },
        {
          "internalType": "uint256",
          "name": "display",
          "type": "uint256"
        },
        {
          "internalType": "bool",
          "name": "guess",
          "type": "bool"
        }
      ],
      "name": "determineWinner",
      "outputs": [
        {
          "internalType": "bool",
          "name": "",
          "type": "bool"
        }
      ],
      "payable": false,
      "stateMutability": "pure",
      "type": "function"
    },
    {
      "constant": false,
      "inputs": [
        {
          "internalType": "uint256",
          "name": "display",
          "type": "uint256"
        },
        {
          "internalType": "bool",
          "name": "guess",
          "type": "bool"
        },
        {
          "internalType": "uint256",
          "name": "wager",
          "type": "uint256"
        }
      ],
      "name": "winOrLose",
      "outputs": [
        {
          "internalType": "bool",
          "name": "",
          "type": "bool"
        }
      ],
      "payable": true,
      "stateMutability": "payable",
      "type": "function"
    }
  ],
  "bytecode": "0x6080604052336000806101000a81548173ffffffffffffffffffffffffffffffffffffffff021916908373ffffffffffffffffffffffffffffffffffffffff1602179055506001600060146101000a81548160ff0219169083151502179055506102e38061006e6000396000f3fe6080604052600436106100295760003560e01c8063171273a51461002e578063c348893714610097575b600080fd5b34801561003a57600080fd5b5061007d6004803603606081101561005157600080fd5b8101908080359060200190929190803590602001909291908035151590602001909291905050506100f3565b604051808215151515815260200191505060405180910390f35b6100d9600480360360608110156100ad57600080fd5b810190808035906020019092919080351515906020019092919080359060200190929190505050610140565b604051808215151515815260200191505060405180910390f35b600060011515821515141561011857828411156101135760019050610139565b610138565b60001515821515141561013757828411156101365760009050610139565b5b5b5b9392505050565b600060011515600060149054906101000a900460ff1615151461016257600080fd5b343373ffffffffffffffffffffffffffffffffffffffff1631116101ee576040517f08c379a00000000000000000000000000000000000000000000000000000000081526004018080602001828103825260128152602001807f496e73756666696369656e742066756e6473000000000000000000000000000081525060200191505060405180910390fd5b60006101f861028d565b905060006102078287876100f3565b905060011515811515141561026b573373ffffffffffffffffffffffffffffffffffffffff166108fc600286029081150290604051600060405180830381858888f1935050505015801561025f573d6000803e3d6000fd5b50600192505050610286565b60001515811515141561028357600092505050610286565b50505b9392505050565b6000806001600a600143034060001c816102a357fe5b06019050809150509056fea265627a7a723158201bb0dc0247b996ebf9015f391468f6d82bb019f12e24ba3b7e56f51b8aef7b2f64736f6c63430005100032",
  "source": "pragma solidity ^0.5.0;\n\ncontract Gaming {\n    /* Our Online gaming contract */\n    address owner;\n    bool online;\n\n\n    struct Player {\n        address player;\n        string playerName;\n        uint playerBalance;\n        uint wins;\n        uint losses;\n    }\n\n    mapping (uint => Player) players;\n    \n    \n    constructor() public payable {\n        owner = msg.sender;\n        online = true;\n    }\n\n    function mysteryNumber() internal view returns (uint) {\n        uint randomNumber = uint(blockhash(block.number-1))%10 + 1;\n        return randomNumber;\n    }\n\n    function determineWinner(uint number, uint display, bool guess) public pure returns (bool) {\n        if (guess == true) {\n            if (number > display) {\n                return true;\n            }\n        } else if (guess == false) {\n            if (number > display) {\n                return false;\n            }\n        }\n    }\n\n    function winOrLose(uint display, bool guess, uint wager) external payable returns (bool) {\n        /* Use true for a higher guess, false for a lower guess */\n        require(online == true);\n        require(msg.sender.balance > msg.value, \"Insufficient funds\");\n        uint mysteryNumber_ = mysteryNumber();\n        bool isWinner = determineWinner(mysteryNumber_, display, guess);\n        if (isWinner == true) {\n            /* Player won */\n            msg.sender.transfer(wager * 2); // return the amount wagered plus the ether sent with the transaction\n            return true;\n        } else if (isWinner == false) {\n            /* Player lost */\n            return false;\n        }\n    }\n}\n",
  "sourcePath": "C:/Users/JOZA/Desktop/Solidity Projects/Gaming/contracts/Gaming.sol",
  "compiler": {
    "name": "solc",
    "version": "0.5.16+commit.9c3226ce.Emscripten.clang"
  },
  "schemaVersion": "3.3.2",
  "updatedAt": "2021-05-23T20:11:37.971Z",
  "networkType": "ethereum",
  "devdoc": {
    "methods": {}
  },
  "userdoc": {
    "methods": {}
  }
}